:020000040000FA
:06000000020ED302057B95
:03002B00020C5F65
:03003300020A0CB2
:03004300020B7B32
:03004B00020B5451
:030053000204AAFA
:03005B00020B6332
:03006300020B6F1E
:03006B0002023F4F
:03007B000209E98E
:1000830002050C01010020FD00020000BF12000068
:10009300000000002513000000000000A71200006C
:1000A300000000000000000000000000000000004D
:1000B3000000000000000612FFFF01DD1000000039
:1000C300015D176317000069176F17000000000038
:1000D30000000000000000000000000000102020CD
:1000E300202020202020202020202020202001321A
:1000F300000104010001000659800120810204016E
:10010300000100065980012081030401000100065B
:100113005980012081040401000100065980012057
:1001230081050401000100065980012081060401B4
:100133000001000659800120810704010001000627
:100143005980012081080401000100065980012023
:10015300810904010001000659800120810A04017C
:100163000001000659800120810B040100010006F3
:1001730059800120810C04010001000659800120EF
:10018300810D04010001000659800120810E040144
:100193000001000659800120810F040100010006BF
:1001A30059800120811004010001000659800120BB
:1001B300811104010001000659800120811204010C
:1001C300000100065980012081130401000100068B
:1001D3005980012081140401000100065980012087
:1001E30081010104005811000000FFFF0512B8014E
:1001F300A0BB0D00A0BB0D00020200080000050219
:10020300070401051E02051E020A0A01080803B8B5
:100213000B02803E0102FEFFE8030A050001FFFF17
:10022300020A1401E005030101FF22280000000077
:10023300BA2700000000FF000000FF00C0E074EFD9
:1002430012080874FF120D30C2AF7A647B001217D4
:100253007512045974116E4B70199014B6E064064C
:10026300601C79011218C512187D9080F2120F419B
:100273001220759014B6E06406600302039412041E
:1002830059C3EA9401EB9400A2D265D03350030220
:10029300037FEA2AF8EB33F974EC28F8741039F980
:1002A3008882F583E0FAA3E0FBEA4B8882898370B6
:1002B300077401F0A3E48003E4F0A3F08882898348
:1002C300E0901114120465120F58E4F0A3F07403C4
:1002D300120F587410F07404120F587414F0A374AE
:1002E3001112048E120CBE7508017808120CBE7828
:1002F30008120CBE7403120D1888088909780812B5
:100303000CBA7C067D007ADF7B10EEF91215C574FA
:1003130005120C7CC28D75B61FA28D50FCE5BAA9DF
:10032300BB901128F0A3E9120465120F58E4F0A35F
:10033300F07403120F587421F07404120F587428C8
:10034300F0A3741112048E120CBE75080178081202
:100353000CBE7808120CBE7403120D1888087808B6
:10036300120CBA7C017D007ADF7B1079011215C56E
:100373007405120C7C7A967B0012177B9080C21254
:100383000F411220757A007B0012207B7900121F27
:100393005B750800800E120476945040077A327B16
:1003A3000012177B74116E7001EF60EAE508C394C5
:1003B3005040347A107B271217757A2C7B01121761
:1003C3007B7A107B271217757A967B0012177B12A4
:1003D300175D9080F2120F41122075C2AFC2AF7544
:1003E300C9AB75C95B80FE750800800E1204769454
:1003F3000A40077A327B0012177B74126E7001EF8A
:1004030060EAE508C3940A400A7A009010DDE0F937
:1004130012150BE589A2E650055389BFC2C5E589CC
:10042300A2E550055389DFC2C5E589A2E45005530F
:1004330089EFC2C5E589A2E350055389F7C2C5E533
:1004430089A2E250055389FBC2C5D2AF7401120CD5
:100453007C7F040208671217818A088B09AE08AFF4
:100463000922F09010DEE004F08518828519837468
:1004730001F0221217818A0A8B0BAE0AAF0B7AD8CE
:100483007BD61217750508E508C322F09010E774B0
:1004930002F09010DFE4F0A3F09010E804F0901065
:1004A300DEE0F508780822C0E074F1120808A2AF74
:1004B300E433F509D2AF85A708AFA1EF5508FE7461
:1004C300105E600612102B75A1EF74085E600812AF
:1004D300103175A1F78024EFA2E092F0E508A2E0C5
:1004E30082F05017906198E0F8900575E0C398A2E8
:1004F300D265D0335002E8F075A1FE751A00E50904
:10050300A2E092AF7F02020867C0E074F21208080B
:10051300A2AFE433FED2AF9061A4E0F8759B00E58F
:100523009158540860087591F71210798023E5916A
:1005330058541060087591EF12107F8014E591A252
:10054300E092F0E8A2E082F05007E0C2E0F012117E
:10055300D59061A3E0F8E5E9585404600E1211AB9D
:1005630075E9FB906193E0A2E640F2751A00EEA2F2
:10057300E092AF7F01020867C0E074F2120808A29C
:10058300AFE433FED2AF9061A5E0F8E5BF58540461
:10059300600675BFFB1211ED80D1C3E498F8E499AE
:1005A300F91205DE8026C3E49AFAE49BFBE920E70F
:1005B300E91205DEE498F8E499F922C3E498F8E433
:1005C30099F91205DEE498F8E499F9C3E49AFAE498
:1005D3009BFB22EB20E7CFE920E7E0B90010BB004B
:1005E30008E88AF084F8AAF022E4FBC8FA22EB7048
:1005F300227B10C833C8C933C9335007C39AC3DB3E
:10060300F280069A50012ADBEAC833F4C8C933F4EE
:10061300C9FA2275F008E4C833C8C933C933C99A83
:10062300C99B5004C92AC93BD5F0ECFBC833F4C8B5
:10063300E4C9FA22080808EAC0E0EBC0E086F0E764
:10064300A4FA180986F0E7A42AFA180986F0E7A4A1
:100653002AFA180986F0E7A42AFA1986F0E7A4FB18
:10066300E5F02AFA190886F0E7A42BFBE5F03AFA3D
:10067300190886F0E7A42BFBE5F03AFA1818098667
:10068300F0E7A4C5F02BFBE43AFA1908E7C5F0C676
:10069300A426F6E5F03BFBE43AFA1886F0E7A4F665
:1006A300E5F00826F6E43B08F6E43A08F6D0E0FB6A
:1006B300D0E0FA22120F4DB90003020717E47921A3
:1006C3007807B800028004F709D8FCE490030178A6
:1006D3007A79128002F0A3D8FCD9FA781A900086AE
:1006E3007A01BA00028007E493A3F608DAF97A7A6A
:1006F3007B1490008778B979028015E493A3AD82C7
:10070300AE838A828B83F0A3AA82AB838D828E838E
:10071300D8E9D9E77582EB7583C57404120C41756A
:1007230082BB7583257400120C41E4CFC0E0E4CE94
:10073300C0E0E4CDC0E0E4CCC0E075F020E626F6EE
:1007430008E633F608E633F608E633F6181818EC2D
:1007530033FCED33FDEE33FEEF33FFC3EC9709EDCE
:100763009709EE9709EF97191919400FFFEC97FCBA
:1007730009ED97FD09EE97FE191906D5F0BFECF7C1
:1007830009EDF709EEF709EFF7191919D0E0FCD0D5
:10079300E0FDD0E0FED0E0FF222518C582C0E0E5F1
:1007A3001934FFC583C0E0E518C3958224F810AF60
:1007B300088583198582188008858319858218D254
:1007C300AFCEF0A3E520F0A37808E608F0A3DEFAA5
:1007D300EFF0A3E58124FAF8E608F0A3E608F0A316
:1007E300E608F0A30808E608F0A3E608F0A31581DD
:1007F3001581D0E0FED0E0F8158115811581E8C0A0
:10080300E0EEC0E022C0D02518C582C0E0E519346F
:10081300FFC583C0E0E518C3958224F310AF0885B4
:1008230083198582188008858319858218D2AFC8F9
:10083300F0A3E9F0A3EAF0A3EBF0A37908E709F04A
:10084300A3D8FAECF0A3EDF0A3EEF0A3EFF0A3D05E
:10085300E0F0A3D0E0F0A3D0E0F0A3E520F0A3E51F
:10086300F0F0A322851983851882E0C0E0A3E0F9A4
:10087300A3E0FAA3E0FBA37808E0F608A3DFFAE01D
:10088300FCA3E0FDA3E0FEA3E0FFA3E0C0E0A3E040
:10089300C0E0A3E0F5D0A3E0F520A3E0A3F5F010BA
:1008A300AF08858319858218800885831985821886
:1008B300D2AFD082D083D0E0F8D0E032FF75F01011
:1008C3008E218F228582268583258518828519832B
:1008D300E0CEA3E0CF852682852583EBC9EAC8ED68
:1008E300CBECCAC3E833C8E933C9EA33CAEB33CB29
:1008F300C3EA9EF524EB9FF523B35004AB23AA244C
:10090300EC33CCED33CDD5F0DAAE21AF2222D08358
:10091300D082ECC0E0EDC0E0E493A3FCE493A3FD3C
:10092300ED4C600D120A2CEC24FFFCED34FFFD802E
:10093300EFE493A3FCE493A3FDED4C600D120AFFD7
:10094300EC24FFFCED34FFFD80EFD0E0FDD0E0FCB4
:10095300E493A3C0E0E493C0E022D083D082E9C053
:10096300E0E493A3C386F0C5F095F0F908E493A3FC
:1009730086F0C5F095F0700BE493A3C3994005E9A5
:10098300048002A3E475F002A42582F582E5F03524
:1009930083F583D0E0F9E493A3C0E0E493C0E022BD
:1009A300851983851882E0A3FEE0A3F5207808E08B
:1009B300A3F608DFFAE0A3FFE0A3C0E0E0A3C0E0F2
:1009C300E0A3C0E0E0A3C0E0E0A3C0E010AF08856F
:1009D30082188583198008858218858319D2AFD040
:1009E30083D082020C47C0E0C0D0E58AA2E3501452
:1009F300A293400B7464800114A293400270F953D4
:100A03008AF7C2EBD0D0D0E032C0E0C0D0E58BA2F1
:100A1300E05014A2A0400B7464800114A29340021E
:100A230070F9538BFEC2E880DBC0E0C3E493960801
:100A33007401939618400FE4936670080874019349
:100A4300661870007019A3A3C3E493960874019306
:100A53009618A3A3400DD0E0D0E0D0E002094DA347
:100A6300A3A3A3A3A3D0E022D083D082C5F0E493B1
:100A7300A3C5F0C395F0F5F0E493A3C395F0400547
:100A8300E5F0048001E475F002A42582F582E5F027
:100A93003583F583E493A3C0E0E493C0E0227404B8
:100AA300800474028000CCC0E0EDC0E0E518C39C74
:100AB300CCAD1950011D10AF068C188D1980068C12
:100AC300188D19D2AF120BC3D0E0FDD0E0FC227415
:100AD300028000CCC0E0EDC0E0E518C39CCCAD19AA
:100AE30050011D10AF068C188D1980068C188D19B6
:100AF300D2AF120BA1D0E0FDD0E0FC22C0E0C0F0E9
:100B030088F0E4936670080874019366187000A86F
:100B1300F0A3A3700BD0F0D0E0D0E0D0E002094DF9
:100B2300A3A3D0F0D0E022D083D082CCC0E0E49362
:100B3300A36006120C031470FAE493A36006120D6B
:100B4300461470FAD0E0FCE493A3C0E0E493C0E061
:100B530022C0E074F21208081224C57F010208675C
:100B6300C0E074F2120808121A3380EFC0E074F286
:100B7300120808120F6B80E3C0E074F2120808A297
:100B8300AFE433FED2AFC2C0E5D1A2E45003120FEB
:100B930095751A00EEA2E092AF7F01020867CAC002
:100BA300E0E493A3C582CCC582C583CDC583F0A3FE
:100BB300C582CCC582C583CDC583DAE5D0E0CA2220
:100BC300CAC0E0E0A3C582CCC582C583CDC583F08E
:100BD300A3C582CCC582C583CDC583DAE6D0E0CA7E
:100BE300227009080808226016181818C6C333C6ED
:100BF30008C633C608C633C608C633C6D5E0EA22DC
:100C0300C0E0E493A3D39C5010E493A3C39C400A95
:100C1300D0E0D0E0D0E0020B47A3A3A3D0E022C0F2
:100C230008C3E096F50808A3E096420808A3E096F7
:100C3300420808A3E09645087001D3D00822C09F5C
:100C4300F59FE473D09F22D083D082C09FE493C0EA
:100C5300E0740193C0E0740293F59F22C0E0C0D01A
:100C6300E8C0E0A8A8D2AFC2C7751A00E8A2E7920D
:100C7300AFD0E0F8D0D0D0E03200C0D0251810AF0C
:100C830008F518500C05198008F51850020519D2FB
:100C9300AFD0D0222518F58210AF08F518400C15F7
:100CA300198008F51840021519D2AF8519832274EB
:100CB30004800A74038006740280027401C0E0F4A5
:100CC30004120C97D0E0120F1022BB0102E722C0DE
:100CD30082C08389828A83BB0003E08002E493D0CD
:100CE30083D082226016080808C6C313C618C61329
:100CF300C618C613C618C613C6D5E0EA22C3E0C693
:100D030096F608A3E0C696F608A3E0C696F608A3EF
:100D1300E0C696F6222518F8E43519F9222518FAC3
:100D2300E43519FB222518FCE43519FD222518109A
:100D3300AF08F518400C15198008F518400215196D
:100D4300D2AF22C0E0E493A36C7009D0E0D0E0D02E
:100D5300E0020B47A3A3D0E022C3E09608A3E096EA
:100D630008A3E09608A3E096A2D265D03322E066FA
:100D7300701008A3E066700A08A3E066700408A375
:100D8300E06622E76670100809E766700A0809E75B
:100D93006670040809E76622C3E096F008A3E096AC
:100DA300F008A3E096F008A3E096F022C3E697F6D6
:100DB3000809E697F60809E697F60809E697F62282
:100DC300C3E4939608740193960874029396087487
:100DD30003939622E627F60809E637F60809E6376D
:100DE300F60809E637F622E026F608A3E036F60809
:100DF300A3E036F608A3E036F622700422600D184D
:100E0300C6C333C608C633C6D5E0F41822E493F646
:100E130008740193F608740293F608740393F62298
:100E2300E657F60809E657F60809E657F60809E60D
:100E330057F622E056F608A3E056F608A3E056F666
:100E430008A3E056F622E056F008A3E056F008A304
:100E5300E056F008A3E056F022E026F008A3E036BF
:100E6300F008A3E036F008A3E036F022E647F608E0
:100E730009E647F60809E647F60809E647F622E4D5
:100E8300C396F608E496F608E496F608E496F62286
:100E9300C3E7960809E7960809E7960809E7962243
:100EA300C6F4C608C6F4C608C6F4C608C6F4C62205
:100EB300600D08C6A2E713C618C613C6D5E0F32211
:100EC300C3E09608A3E09608A3E09608A3E0962261
:100ED30075D00075813F751801751903000206B7B7
:100EE300E6F008A3E6F008A3E6F008A3E6F0226024
:100EF3000C08C6C313C618C613C6D5E0F422E0F621
:100F030008A3E0F608A3E0F608A3E0F622CAC0E0CF
:100F1300E6F0A308DAFAD0E0FA22E8F0A3E9F0A3B6
:100F2300EAF0A3EBF022E0F8A3E0F9A3E0FAA3E0F0
:100F3300FB22EAF0A3EBF0A3ECF0A3EDF022E0FA3E
:100F4300A3E0FBA3E0FCA3E0FD22E5C754F84401C2
:100F5300F5C77901222518F582E43519F58322C2F4
:100F6300AF75D69F02000022120C4AE2CF04120C86
:100F73004AE78E04120C4A548F04120C4A0C900454
:100F8300120C4A829004120C4A959104120C4A20C6
:100F93009304120C4A899304120C4AD89304120C3A
:100FA3004AE19304120C4AF09304120C4A06940487
:100FB300120C4A199404120C4A229404120C4A3556
:100FC3009404120C4A619404120C4AD29604120C33
:100FD3004A129704120C4A529704120C4A66970459
:100FE300120C4A7F9704120C4A709804120C4A158B
:100FF3009904120C4A299904120C4A31CB04120C9D
:101003004A55CB04120C4A6ECB04120C4AA0CB04F3
:10101300120C4AD0CB04120C4AFDCB04120C4A0723
:10102300CC04120C4A69CC04120C4A78CC04120C7E
:101033004A82CC04120C4A8FCC04120C4A01B80425
:10104300120C4A21B804120C4A60B804120C4A7BF1
:10105300B804120C4A9AB804120C4A00B904120CD0
:101063004A09B904120C4A66B904120C4A8AB90433
:10107300120C4A4BBA04120C4A58BA04120C4A69AD
:10108300BA04120C4A88D704120C4AA0D704120CD3
:101093004ACCD704120C4A769E04120C4AD09F0401
:1010A300120C4ADE9F04120C4AF19F04120C4A06EA
:1010B300A004120C4A1BA004120C4A2EA004120C0A
:1010C3004AA2A004120C4A07A104120C4A8FA104DD
:1010D300120C4A0BA204120C4ACFA204120C4ADFD0
:1010E300A204120C4AEEA204120C4AEFD604120C0C
:1010F3004A13D704120C4A3BD704120C4A63D70491
:10110300120C4AC6C104120C4AEDC104120C4A0B5C
:10111300C204120C4A7EC204120C4A1EBD04120CF5
:101123004A37BD04120C4A43BD04120C4A57BD048E
:10113300120C4A75BD04120C4A7FBD04120C4A8975
:10114300BD04120C4A9CBD04120C4ACBBD04120C04
:101153004A40BE04120C4A6FBE04120C4ABDBE04C0
:10116300120C4A0CBF04120C4A27BF04120C4A315A
:10117300BF04120C4A42BF04120C4A85BF04120C6E
:101183004A92D804120C4ADDD804120C4A00800497
:10119300120C4A2A8004120C4A478004120C4A5A41
:1011A3008004120C4A708004120C4ACE8004120C84
:1011B3004A068104120C4AFA8404120C4A3F86043C
:1011C300120C4A728604120C4AD58604120C4A3F4A
:1011D3008804120C4A678804120C4A7C8804120C97
:1011E3004A8C8804120C4AD08804120C4A2B8904B6
:1011F300120C4A3B8904120C4AD0CD04120C4AEA61
:10120300CD04120C4A12CE04120C4A2BCE04120C3B
:101213004A4FCE04120C4A6DCE04120C4A84CE04FB
:10122300120C4AB2CE04120C4ACDCE04120C4AE977
:10123300D404120C4A2DD504120C4A69B404120CBE
:101243004A79B404120C4A80B504120C4AB4B504AA
:10125300120C4AD6B504120C4AF9B504120C4A17FB
:10126300B604120C4A51B604120C4AB6B604120C58
:101273004AF8B604120C4A37B704120C4A68B7048A
:10128300120C4A9FB704120C4A99CC04120C4AB7A9
:10129300CC04120C4A1CCD04120C4ABBCD04120C14
:1012A3004A39D304120C4A22D004120C4A68D004DF
:1012B300120C4A9EC904120C4ADDCA04120C4AB429
:1012C300E303120C4A86E703120C4A75E903120C76
:1012D3004AA3EA03120C4A80EB03120C4A02ED0301
:1012E300120C4AD2ED03120C4A26EE03120C4AD317
:1012F300C704120C4AF4C704120C4A26C904120C80
:101303004A50C904120C4A97BA04120C4A0BBB0484
:10131300120C4A16BB04120C4A37BB04120C4A15B2
:10132300BF03120C4A18BF03120C4AD8C303120C92
:101333004A0EC503120C4A61C603120C4A25C703A1
:10134300120C4A08C803120C4A00C903120C4AB013
:10135300C903120C4AE0C903120C4A97CB03120CBF
:101363004A9DFE01120C4AAFFE01120C4AC2FF0154
:10137300120C4AC5FF01120C4A9BD504120C4AD128
:10138300D504120C4AEBD504120C4A2DD604120CC8
:101393004A3DD604120C4AC4F803120C4AFEF80361
:1013A300120C4A67F903120C4A84F903120C4A9D82
:1013B300F903120C4A3FFA03120C4A48FA03120CBF
:1013C3004A8DFA03120C4AB6FA03120C4AC3FA0303
:1013D300120C4A34FB03120C4ABFFB03120C4A0DD6
:1013E300FC03120C4A4BFC03120C4AB0FC03120C14
:1013F3004AD3FC03120C4A4AFD03120C4AA1FD0313
:10140300120C4ADCFD03120C4A11FE03120C4A2390
:10141300FE03120C4A35FE03120C4A54FE03120C4F
:101423004A5DFE03120C4A1DFF03120C4A69FF03B7
:10143300120C4AA7FF03120C4A27A304120C4A6793
:10144300A404120C4A8AA404120C4A9BA404120C8E
:101453004A9AA604120C4ABAA604120C4A90BF0474
:10146300120C4AC6BF04120C4A0EC004120C4A677F
:10147300C104120C4ABC9903120C4AE09A03120CE1
:101483004A1A9B03120C4AC49C03120C4AEE9C0397
:10149300120C4A639F03120C4AA39F03120C4A398E
:1014A300A103120C4AD6A103120C4A28A203120C60
:1014B3004ACBA203120C4A03A303120C4A45A3030B
:1014C300120C4AB4A403120C4A02A603120C4A33A8
:1014D300A803120C4A61A803120C4A88A803120C31
:1014E3004A91A803120C4AE1A803120C4A73A903F8
:1014F300120C4AA2AC03120C4A25AD03120C4A4744
:10150300D604120C4A5FD604120C4A69D604120C94
:101513004ABDD604120C4AE9D804120C4AF0A704B7
:10152300120C4A06A804120C4AA7A804120C4AE695
:10153300A804120C4A03A904120C4A34A904120C7D
:101543004A81A904120C4AB4A904120C4AEFA90453
:10155300120C4AEAAB04120C4A52AC04120C4A397C
:10156300D204120C4A98D204120C4AD6D204120C9A
:101573004A17D304120C4A008002120C4A0C800250
:10158300120C4A6E8002120C4A788002120C4A0B2B
:101593008102120C4A478102120C4A038202120C86
:1015A3004A168202120C4A668202120C4AF5820221
:1015B300120C4A778302120C4A228502120C4AF655
:1015C3008602120C4A498802120C4AB28902120C92
:1015D3004A4F8A02120C4AF78E02120C4AE58F0216
:1015E300120C4A839002120C4AA89002120C4A442D
:1015F3009102120C4A599102120C4A7D9102120C6B
:101603004AE39102120C4A009202120C4A2A9202F5
:10161300120C4AA79302120C4AC89302120C4A4EA8
:101623009402120C4AF49402120C4A3B9502120CD7
:101633004AAE9502120C4A3A9602120C4A9E960240
:10164300120C4AFE9602120C4A949702120C4A0F8D
:101653009802120C4A429802120C4AA49802120CE5
:101663004A069A02120C4A769A02120C4A249B02E8
:10167300120C4A7A9C02120C4A109D02120C4A7CEC
:101683009D02120C4ABF9F02120C4A4BA102120C7C
:101693004A76A102120C4A5CA302120C4A01A5026B
:1016A300120C4A0AA602120C4A34CE02120C4AC485
:1016B300CE02120C4A3FCF02120C4A3AD002120C4D
:1016C3004AB7D002120C4AF5D102120C4A90D20248
:1016D300120C4A67D402120C4A56D502120C4A73F2
:1016E300D502120C4A96D602120C4AC1D702120C2A
:1016F3004A63D802120C4A92DB02120C4A8FDD02B3
:10170300120C4A19DE02120C4A73DE02120C4AC191
:10171300DE02120C4A3CDF02120C4AB9DF02120C41
:101723004AF6DF02120C4A74E602120C4AC5E802BA
:10173300120C4A9CE902120C4A3ED904120C4A6B61
:101743008904120C4AF38904120C4A798A04120C94
:101753004A7B8B04120C4A808B04120C4ABF8B0405
:10176300120C4AFF8B04120C4A198C04120C4A1CEB
:101773008C04120C4A158D04120C4A308D04120C81
:101783004AD38D04120C4A008003120C4A5880037A
:10179300120C4ADE8003120C4AEE8103120C4A3B00
:1017A3008203120C4AF88203120C4A0F8303120CB1
:1017B3004A618303120C4A9E8303120C4AB18303CA
:1017C300120C4A078403120C4A608403120C4AF079
:1017D3008603120C4A878703120C4AB18703120C43
:1017E3004AE98703120C4A1F8A03120C4A658A03CB
:1017F300120C4AAF8A03120C4A838B03120C4AC49D
:101803008B03120C4AE78B03120C4A2E8C03120C27
:101813004A448C03120C4AC58C03120C4A4D8D03A7
:10182300120C4A588D03120C4AA88D03120C4A025B
:101833008E03120C4A3D8E03120C4A538F03120C73
:101843004AD89103120C4A049303120C4A3F9303A0
:10185300120C4A0C9403120C4A569403120C4A5964
:101863009403120C4A629403120C4A749403120CEC
:101873004AF59403120C4A2B9503120C4A5795030D
:10188300120C4A7E9503120C4AA29503120C4A3994
:101893009603120C4A529603120C4A689603120CD2
:1018A3004A899603120C4AB79603120C4AD7960339
:1018B300120C4A149703120C4A4B9703120C4A4A10
:1018C3009803120C4A7D9903120C4A939903120C44
:1018D3004AAA9903120C4A0DD804120C4A19D804C7
:1018E300120C4A55D804120C4A3D9904120C4A7B37
:1018F3009904120C4A079A04120C4A129B04120C04
:101903004A2E9D04120C4AAB9D04120C4A87EE0129
:10191300120C4AAAEE01120C4A81EF01120C4ACAB8
:10192300EF01120C4A22F001120C4A7EF001120C54
:101933004ACAF001120C4A40F101120C4ACEF101DD
:10194300120C4A46F201120C4A89F201120C4A683F
:10195300F601120C4AAFF801120C4AE9F801120C15
:101963004ACFF901120C4AA3FA01120C4A1EFC01D8
:10197300120C4AB4FC01120C4A72AD03120C4A1247
:10198300AE03120C4A7CAE03120C4A95AE03120C42
:101993004A17AF03120C4A5BAF03120C4A73B0032E
:1019A300120C4AAFB003120C4A2CB103120C4A7743
:1019B300B103120C4ADBB103120C4A0EB303120C2F
:1019C3004A3CB403120C4ADEFF02120C4A8DB603E2
:1019D300120C4A2DB703120C4AD0B703120C4A2F2C
:1019E300B803120C4AA4B803120C4A08BA03120C27
:1019F3004AA1BB03120C4A4DBC03120C4AB7BC03E9
:101A0300120C4ACCBD03120C4A91EA02120C4A0989
:101A1300EB02120C4A51EB02120C4A95EB02120C28
:101A23004ADEEB02120C4A28EC02120C4A5DEC026D
:101A3300120C4AA3CF04120C4A35ED02120C4A8E43
:101A4300EE02120C4A17EF02120C4A73EF02120C49
:101A53004A8DEF02120C4AB4EF02120C4A0CF00248
:101A6300120C4A76F102120C4A95F102120C4ABD8D
:101A7300F202120C4A3AF302120C4AA7F302120CB6
:101A83004A09F402120C4AB9F402120C4A8BF60208
:101A9300120C4A76F702120C4A70F802120C4A76BC
:101AA300F902120C4A92FA02120C4AA0FA02120C20
:101AB3004A79FB02120C4A19FC02120C4A5DFC0221
:101AC300120C4A72FC02120C4A83FD02120C4A26C3
:101AD300FE02120C4A7EFE02120C4AADB004120C36
:101AE3004A55B204120C4A12B304120C4A67B304E7
:101AF300120C4AE4B304120C4A9E7C00120C4AB93D
:101B03007C00120C4AFD7C00120C4A237D00120C4F
:101B13004A497D00120C4A617D00120C4AC47D00C3
:101B2300120C4AD97D00120C4AFB7E00120C4A04A7
:101B33007F00120C4A0D7F00120C4A167F00120C14
:101B43004A207F00120C4A5FAC04120C4A3FB004D7
:101B5300120C4A44B004120C4A46B004120C4A60F8
:101B6300C604120C4AC27F00120C4A45AA02120C88
:101B73004A9CAA02120C4A08AB02120C4A94AB020A
:101B8300120C4A4AAC02120C4A92AC02120C4AAB37
:101B9300AC02120C4ACEAC02120C4AF0AC02120C8C
:101BA3004A2EAD02120C4A7DAD02120C4AA8AD02B8
:101BB300120C4A06AE02120C4AADAE02120C4A5582
:101BC300AF02120C4AD1AF02120C4A9EB002120CA1
:101BD3004AEAB002120C4A72B102120C4AABB102C9
:101BE300120C4A3CB202120C4A4DB202120C4ABF0A
:101BF300B202120C4A58B302120C4AC2B302120CBC
:101C03004AB2B402120C4AD7B402120C4AD4B50237
:101C1300120C4AE1B502120C4AEAB502120C4AD37D
:101C2300B702120C4AEFB802120C4A80B902120C26
:101C33004AF1B902120C4ACBBB02120C4A96BF02FC
:101C4300120C4AAABF02120C4ABABF02120C4AC4AF
:101C5300BF02120C4ACDBF02120C4AD6BF02120CAD
:101C63004AE0BF02120C4A0FC002120C4A3DC002E6
:101C7300120C4A48C002120C4A6CC002120C4A9061
:101C8300C002120C4A02C102120C4A4BC102120CCE
:101C93004A67C102120C4AD8C102120C4A24C2027A
:101CA300120C4A6DC202120C4AABC202120C4A2C2D
:101CB300C302120C4AF7C402120C4A96C502120C54
:101CC3004A5EC602120C4AEAC802120C4A3FC90213
:101CD300120C4A67C902120C4A9ACA02120C4ADF52
:101CE300CA02120C4A34CB02120C4AE2CB02120C87
:101CF3004A87CC02120C4ABCCC02120C4A5CCD02BD
:101D0300120C4AD8CD02120C4A752B00120C4AA7AA
:101D13002B00120C4ADB2B00120C4A8F2D00120CE5
:101D23004A632E00120C4AC22E00120C4AD82F000E
:101D3300120C4A243000120C4AC13200120C4A36EB
:101D43003500120C4A823600120C4A1A3700120C64
:101D53004A263700120C4A6F3700120C4AA237008A
:101D6300120C4A2E3800120C4A403900120C4A81D8
:101D73003A00120C4A803B00120C4AAA3B00120C98
:101D83004A153C00120C4A6E3C00120C4AE13C001E
:101D9300120C4A173F00120C4A9D4000120C4A884D
:101DA3004100120C4AD64200120C4A0E4500120C96
:101DB3004A054800120C4A144800120C4AA848006D
:101DC300120C4A534900120C4A964900120C4ADF7E
:101DD3004900120C4A2F4A00120C4A9C4A00120C6A
:101DE3004A084B00120C4A244B00120C4A534B0076
:101DF300120C4A924B00120C4A7A4C00120C4A29DC
:101E03004D00120C4AA04F00120C4AD25000120C83
:101E13004AA15100120C4A235200120C4A6F560079
:101E2300120C4A9E5600120C4AF95600120C4A2C08
:101E33005700120C4A875700120C4AA35700120C82
:101E43004A045800120C4A545800120C4A03590011
:101E5300120C4AC65900120C4A8E5A00120C4ADA66
:101E63005C00120C4A665E00120C4ABD5F00120C45
:101E73004AD96000120C4ADC6000120C4A0B610064
:101E8300120C4AFA6200120C4AC36300120C4A0491
:101E93006400120C4A5A6500120C4AD06500120CF9
:101EA3004A036600120C4A676600120C4A886800EF
:101EB300120C4AE76800120C4ABD6900120C4AD1A1
:101EC3006900120C4AE56900120C4A126A00120CEE
:101ED3004A426A00120C4AE66B00120C4AE36C0099
:101EE300120C4A316D00120C4A586D00120C4A3321
:101EF3006E00120C4AD96E00120C4A5F7000120C6D
:101F03004AA67000120C4A137100120C4A68720040
:101F1300120C4A117300120C4A457300120C4A5DED
:101F23007300120C4A007400120C4A7C7600120CE7
:101F33004A247800120C4A487800120C4A6678004A
:101F4300120C4A327900120C4A807C00120C4A2689
:101F53008101120C4A588101120C4AD88501120CD6
:101F63004A278601120C4A6D8601120C4A1087011A
:101F7300120C4A758701120C4AB98701120C4A20C8
:101F83008901120C4A4C8A01120C4A498E01120C27
:101F93004AC88E01120C4AEE8F01120C4A5190016D
:101FA300120C4A9D9101120C4A359401120C4AC23B
:101FB3009401120C4ACC9401120C4AF49401120CB1
:101FC3004ABC9501120C4A519601120C4A7A9601A9
:101FD300120C4AA79601120C4AFC9801120C4AC92A
:101FE3009901120C4A089A01120C4A8A9A01120C9E
:101FF3004A359B01120C4A679B01120C4AB29B01A2
:10200300120C4AEB9B01120C4A3A9C01120C4A96A1
:102013009C01120C4A189D01120C4A7D9D01120C61
:102023004AF59D01120C4A9E9F01120C4A96A0018B
:10203300120C4AD7A101120C4A2BA501120C4A8794
:10204300A701120C4A40A801120C4A88A801120CDD
:102053004A69AA01120C4AA4AA01120C4AADAA01A8
:10206300120C4AB6AA01120C4AC1AA01120C4AE088
:10207300AA01120C4A93AB01120C4AF0AB01120CE9
:102083004AFAAB01120C4A04AC01120C4A50AC01DF
:10209300120C4A98AC01120C4A9CAD01120C4A3541
:1020A300AE01120C4AFCAE01120C4A26B001120C0E
:1020B3004A51B101120C4A47B201120C4A5FB201F4
:1020C300120C4A93B201120C4AB1B201120C4AF932
:1020D300B201120C4A32B301120C4AE9B301120CD9
:1020E3004AAAB401120C4A1DB501120C4A99B50152
:1020F300120C4A35B601120C4A5BB701120C4A178F
:10210300B801120C4AB7B801120C4AA4B901120C57
:102113004AFCB901120C4AC2BA01120C4AE5BA01CF
:10212300120C4AFABB01120C4A45BC01120C4AA11B
:10213300BC01120C4A09BD01120C4A2DBD01120C3F
:102143004A55BD01120C4A9ABD01120C4ABEBD018B
:10215300120C4A42BE01120C4A2BBF01120C4A70E8
:10216300BF01120C4A99BF01120C4A37C001120C6D
:102173004AA2C001120C4ACEC001120C4AAFC101DF
:10218300120C4A44EE03120C4A7CEE03120C4A9DD5
:10219300EE03120C4ADFEE03120C4A43EF03120C58
:1021A3004A4DEF03120C4A5DEF03120C4A94EF03FE
:1021B300120C4A3DF303120C4A05F503120C4AE9CB
:1021C300F603120C4A8BF703120C4A15F803120C90
:1021D3004A9FC301120C4A03C401120C4A61C40191
:1021E300120C4AACC401120C4AC7C401120C4AEEC9
:1021F300C401120C4A0BC501120C4A17C501120C7B
:102203004AA8C601120C4AC1C601120C4A3DC701B5
:10221300120C4A50C701120C4A60C701120C4A043F
:10222300C801120C4A70C901120C4A83CA01120C6C
:102233004A23CB01120C4A2DCB01120C4AACCB0121
:10224300120C4ABDCB01120C4AFCCB01120C4A2AD8
:10225300CC01120C4AF7CC01120C4A4ECD01120CE0
:102263004A87CD01120C4ADDCD01120C4AFBCD0188
:10227300120C4A49CE01120C4A14CF01120C4A62C5
:10228300CF01120C4AAFCF01120C4A32D001120C0B
:102293004A5CD001120C4A92D001120C4AA1D0011F
:1022A300120C4A00D101120C4A78D101120C4AB91E
:1022B300D101120C4A09D201120C4A34D201120C78
:1022C3004A4ED201120C4A68D201120C4A3DD30184
:1022D300120C4A47D301120C4A82D301120C4A92C0
:1022E300D301120C4A9BD301120C4AECD301120CFA
:1022F3004A00D401120C4A22D501120C4A39D501E5
:10230300120C4A4ED501120C4AE1D501120C4A5562
:10231300D601120C4AFAD601120C4A05D701120C47
:102323004A65D801120C4A81D801120C4ACDD80152
:10233300120C4A3BD901120C4A6DD901120C4A877F
:10234300D901120C4AC9D901120C4A1CDC01120C26
:102353004AB4DC01120C4A2BDD01120C4A88DF015E
:10236300120C4AA0DF01120C4AA3DF01120C4AAF80
:10237300DF01120C4AC3DF01120C4ACBDF01120C3E
:102383004A02E001120C4AF6E001120C4A80E10114
:10239300120C4A02E201120C4A82E201120C4A595F
:1023A300E301120C4A7BE301120C4A14E401120C00
:1023B3004A71E401120C4A74E401120C4AA1E401CB
:1023C300120C4AB6E401120C4A25E501120C4A71BB
:1023D300E601120C4A84E701120C4A0FE801120CC1
:1023E3004A22E901120C4AE7E901120C4A18EA01F0
:1023F300120C4A3EEA01120C4A47EA01120C4A76D1
:10240300EA01120C4A26EB01120C4AD6EB01120C1C
:102413004A49EC01120C4AECEC01120C4A5FED0143
:10242300120C4A9EED01120C4AE7ED01120C4A1CF4
:10243300EE01120C4AEE7F00120C4A20D204120C59
:102443004ABAD104120C4A37D104120C4ADCD40420
:10245300120C4A4BD404120C4A39D404120C4A29E4
:10246300D404120C4AD3FF03120C4AF17F00120C5E
:102473004AC6FF02120C4A28FF02120C4A17FF0237
:10248300120C4A3BD803120C4A61D703120C4A9729
:10249300D603120C4A06D503120C4ACFD403120CEE
:1024A3004AA1D403120C4A55D403120C4ABED303D7
:1024B300120C4A2ED303120C4A08D303120C4ABD42
:1024C300D203120C4A44CF04120C4A87D203120CD3
:1024D3004A05CF04120C4AE8C504120C4A64C50429
:1024E300120C4A21C404120C4AE9C304120C4AF820
:1024F3007F00120C4A0AD203120C4AA5D103120C14
:102503004A54D103120C4A7CD003120C4AF4FF0242
:10251300120C4AECCF03120C4AA0CF03120C4A1B35
:10252300CF03120C4AD6CE03120C4AF1FF02120C4F
:102533004ABACE03120C4ADBEC02120C4A62CD03F8
:10254300120C4A34CD03120C4A01CD03120C4A85F6
:10255300CC03120C4A69E303120C4A10E303120C76
:102563004ADBE203120C4AA6E203120C4A72E203AC
:10257300120C4A05E203120C4AEDE103120C4AC89D
:10258300E103120C4AA1DE03120C4A74DC03120CA1
:102593004A7BDA03120C4AEEFF02120C4A07DA03F3
:1025A300120C4AB8D903120C4A72D903120C4A14FA
:1025B300D903120C4AB5B40300000080FBE473870F
:1025C3000001001616350004007D1225000200816B
:1025D3001226000200831227000200E415280001DE
:1025E30000EE1529000100EF1584000400F01586A4
:1025F300000100F4152A000100F5152B000100F677
:10260300152C000100FA152D0008008D122E000173
:1026130000FB152F000100FC1530000100FD1531F2
:10262300000100FE153200010095123300010096EF
:102633001234000100FF1536000100971238000123
:1026430000001639000100F9158300020014166317
:10265300000100A81264000100F71565000100F8ED
:10266300156D000100A912710008008512660001B2
:10267300001316430001000416440002000516452A
:10268300000100071646000200081647000800A0D4
:1026930012480001000A164B0001000B160400014A
:1026A300001716A10001001A163700010019168839
:1026B30000010018163C00010098123D00010001C2
:1026C30016490002000C1667000100AA124D000211
:1026D300000E164E00010010164F00020011163EA8
:1026E3000001009F125100010099125200010002E3
:1026F30016530001000316540001009A1200000053
:10270300000000000136360101000102010001034F
:102713000100010401060605020000070100340858
:1027230001000F090401010D0100FF0E080000174D
:10273300020000190100FF1A0100011B0100FE1C29
:102743000100081D0200001F0100012001000121FA
:102753000200002301000F240200002601000127CC
:10276300010008280200FF2A0100072B0102402C68
:102773000100002D0100012E0100012F0100FF3097
:10278300010B1D310800003A0100083B01000F3C1A
:102793000100013D0100FF3E040000420400004629
:1027A3000400004A0400004E0400005204000056D6
:1027B3000400005A04000001037103010301030133
:1027C30003010301032203020301031003000300B7
:1027D3000300030003000300030003420300032478
:1027E3000306030003000304031203250323032545
:1027F300032303040304030003000300034403004F
:102803000300032303000365032100350381030051
:10281300030503000300030003000325032303034D
:10282300007100300160001100700031022003507C
:102833000480001000610000001400630073007244
:1028430000620043000000130006000000000004C3
:102853000012000000000000000000040004003724
:102863000037003C02440000000000000000006547
:102873000000003500810000000500000083000017
:1028830000030271023001600211027002010202B0
:102893000202028002100261023A004100630273E5
:1028A30002720262024302000213023800000200B5
:1028B30002040212020002000200020002040204E7
:1028C30002370037003C02440200023900000200D4
:1028D30002650200023502810200020502820283C0
:1028E3000200020101710101010101110101013124
:1028F30001010101018001100161013B001400632A
:102903000173017201620143010001130106013DDC
:10291300013500040112010001000100010001045E
:10292300010401330133013C01440132013600004B
:1029330001000165010001350081010001050182EB
:102943000183010001000003002001238100000036
:10295300002001248100000400420194800000054E
:102963000042014980000006004201388000000750
:102973000020012581000010004203D31400001140
:102983000020032B11000012001003E414030000C5
:102993000021032C11010000002105E514060000AD
:1029A300001001141136000100060000000F0000A2
:1029B300000000000000000000000003FFFF000013
:1029C3000403FFFF0000FFFF0FF4010005C404032D
:1029D30020000100000B00000000000000000301C4
:1029E3000F000000000000000000000000000000D5
:1029F30000000000000000000000000000000000D4
:102A0300000000551691165B169515611697166111
:102A130016A31667169515611697166D16951573F9
:102A2300169515791695157F169515851695158B9B
:102A330016951500000000000000000000000000D3
:102A43000000000000000000000000000000000083
:102A53000000000000000000000000000000000A69
:102A63000000000200000004000000080000001045
:102A73000000002000000040000000800000000073
:102A83000100000002000000040000000800000034
:102A930010000000200000004000000100B51902F2
:102AA300002B19030031190400371905003D1906DD
:102AB300004919110061191400671915005B19FF0A
:102AC300FF00000AC11F02911F05A31F07971F0CD8
:102AD300791F0D851FFF000000160F00000B150B5B
:102AE300020002220F3300000E5A696742656541F6
:102AF3006C6C69616E6365303901030507090B0D61
:102B03000F00020406080A0C0D0001191618161608
:102B130018230300303017181921301B1D1F3030C4
:102B23003016181920231A1C1E3000034A49434E3D
:102B3300181A25050200393D3F373C3C362C442DFD
:102B43000C0E020B040B0A0708000F02040201011A
:102B530001010902E803000000BE040A0E00E803B5
:102B63001E1E0C040903030A100C040828180A107B
:102B73000404C082C08312254F9012D57421F0A3A0
:102B8300741DF09012D77427F0A3741DF09012D91E
:102B9300742DF0A3741DF09012DB7433F0A3741D35
:102BA300F00263BC74F712079CE9FE9012C9E4F0CB
:102BB300EE9012C8F07CA07D127ACA7B12121571B6
:102BC30090160AE09012D2F09012D37485F0A37499
:102BD30012F0121D5702519C74F012079C8A088B45
:102BE30009EB54807003022D339012C8E0F91213DD
:102BF300D38A0A8B0BAE0AAF0BEE4F7003022D2A5A
:102C0300125595707EEE241F1258DB64137002A3D5
:102C1300E070708E828F83A3A3E0F50EA3E0F50F1F
:102C23009012E3125DC5750A00750B00800D123A10
:102C33006A12658F12146FAA0CAB0DEA4B60448ABB
:102C4300828B83E0650E7004A3E0650F70288A828F
:102C53008B83A3A3A3A31255B3E50A450B8A828BE7
:102C630083A3A3A3A360C7124A94850A82850B8317
:102C7300A3A3A3A380BB8A0A8B0B8A828B83125DD7
:102C8300C180B8EE242A1258DBF91269489012E386
:102C9300123F03A3A3A3A3A3A3A3A3E064027037D8
:102CA3008A828B83125DC580078C828D8312416774
:102CB300EC4D60208C828D83E06A7003A3E06B701F
:102CC300E88C828D83A3A3E06970DE901610124F07
:102CD3002FF0804C121D6F8E828F83E0640170345D
:102CE300EE2418122D87120CBE12488D120AA1EE83
:102CF3002412122D87120CBE124881120CBA1239FB
:102D030032120AA5EE2417124895122591740A125D
:102D13000C7C800CE064027007EEFAEFFB121EA13C
:102D2300EEFAEFFB1213C1AA08E5096480FB805198
:102D3300EA5402600C90161E7401F0EA6402FA80F1
:102D430040EA54046009121D5DE50864048029EA21
:102D530054086029121D698B0BEA450B70169012FB
:102D6300E5E4F0A3F0A3F0A3F07A08FB9012C8E027
:102D7300F9121541E5086408FAAB0980047A007B6F
:102D8300000242D112559FF50A780A2274F4120701
:102D93009C8A088B098A828B83125DDA12478138F9
:102DA300F583E02409FA7B001213BB8A0A8B0BAE6E
:102DB3000AAF0BEE4F7003022E538E828F83740281
:102DC300F0A3E4126CCCA3A3A3A3E8F0A3E91269D4
:102DD3006CA3A3A3A3A3A3A3F0E5082403F8E435FA
:102DE3000912607D1247813AF583123EFCF0EE240E
:102DF30009FAE43FFB8E828F83A3A312651AF5833E
:102E03008882E0A2E58E828F83A3A3A3A3A35004A9
:102E130074018001E4F0E5082403F88882898312B1
:102E23005DC5EA1247753BF583122E56120CB6EABE
:102E330024101265B58E828F83125DC312139774AB
:102E430003120C7CEEFAEFFB9012C8E0F91213C7E1
:102E530002376AE0F508A3E0F509750A007808224D
:102E630074F212079C8A088B09ECFAEDFB740E12BC
:102E73000F58E0FC1225138A0C8B0DAE0CAF0DEE30
:102E83004F6030AC08AD09122525E96026AC08ADCA
:102E930009EEFAEFFB12251FE970148E828F83125D
:102EA3004A28FAEFFB122531AA08AB091224F57957
:102EB30000800279B48003120C7C7F060209A3749C
:102EC300EE12079C74F7120D308A0A8B0BECFEEDA1
:102ED300FF750CB3750D00750E008002050E902B67
:102EE30073E493F8E50EC3984003022FD1AA0E7B37
:102EF300001224A78A088B09EA450960DF8A828BBE
:102F030083A3A3A3A3A3E0250DF50DF8C3E50A98B6
:102F1300E50B940050C67C157D007900EEFAEFFBBB
:102F23001213A3850882850983A3A3A3A3A3E0F8AF
:102F3300E50AC3950D2825E0F8E433F9E50828F5FB
:102F430082E50939F583123CD212658F1220518A2A
:102F53000A8B0BAC0AAD0BEEFAEFFB121571850869
:102F630082850983A3E06401700B12488D740112FA
:102F7300780FA3803DAC18AD1985088285098312AB
:102F83005DC31224BFE9602D7408120F58E0C0E03E
:102F930012488DD0E0F07408120F58E06403700CEF
:102FA300AC18AD19123EF41215718009851882858B
:102FB30019831265838508828509831242A4A3A31A
:102FC300126CA3C0E01244C2D0E0F0750C00A90C4F
:102FD300740902703E74F712079CE9FE8A828B83A0
:102FE300A3A3A3A3A3A3E0540860338A828B83A380
:102FF300A3A3A3A3A3E0540260218A828B83A3A388
:10300300A3A3A3A3A3A3A3E06406600F74E96E6064
:103013000A74CD6E600574F06E7003121D3F025189
:103023009C74E812079C74F8120D307406120F5842
:10303300125669ECFEEDFF891775150012329A12CC
:1030430025018A0A8B0BEA450B7003023256EE24E4
:1030530010124089A90A121C7F8A128B13EA4513A6
:103063007003023256EE2403F50CE43FF50DEE2413
:1030730006F508E43FF5097C008508821247D9125A
:1030830024FB8A108B11850C82850D83E0851282C7
:10309300851383A3A3A3125E59851282851383A389
:1030A300A3A3A3E8F0A3E912393A85128285138317
:1030B300A3A3A3A3A3A3A3125626851282851383D6
:1030C300A3A3A3A3A3A3F0EE1247753F1232AB123F
:1030D3000CB6EE1247813F1265B9851282851383C0
:1030E300A3125DBD1213977403120C7C7428120F84
:1030F30058124A94E512124F21351312658D742A22
:10310300120F58E0C0E0E5121247753513F583D06E
:10311300E0F07514007423120F58E0F516742412AE
:103123000F58780C120F010231DD8510828511834F
:10313300125DC31224B9850882850983A3EAF0A32B
:10314300EB1232BCA3A31269841232B6A2E6500F6B
:10315300850882850983A3A3A3A3A3E0D2E1F0E5B5
:10316300157066850882850983124A93901319E0C6
:10317300687003A3E0697051850882850983A3A35E
:10318300A31240977510007810120CBE780C120C25
:10319300B2E516F5107810120CBE7426120F5812F1
:1031A3000AA5901326120AA579007410120F58125B
:1031B3006964121ED1740A120C7C85088285098306
:1031C300A3A3A3A3A3E04405F074012514FC1232C6
:1031D3009A1224FB8A108B110514E5104511604ED9
:1031E300C3E514950AE4950B5044E51475F006A461
:1031F300F8A9F0E51228F8E51339F9E8240FF508E2
:10320300E439F509850882F583E4127C35E064012D
:10321300600302312D7515018508828509837401C8
:103223001232BC125846A3E8F0A3E9023144AA12B1
:10323300AB13121C857812120CBAAD167424120F3C
:1032430058E0FCA917EEFAEFFB121D397402120CB9
:103253007C803A8E828F83A3A3A3E0C0E074031221
:103263000F58D0E012393AC0E07404120F58D0E07E
:10327300F0E50A450B70097405120F5874B98007FD
:103283007405120F5874101265CA121ECB740812FB
:103293000C7C7F100209A38E828F83125DC98E82FC
:1032A3008F83A3A3A3E0F922F5831255B7750E000C
:1032B300780C22A31269ADE022127C39A32274E9AF
:1032C30012079C74F3120D308A0C8B0D89168C1423
:1032D3008D157424120F58125CC1AA08FB121C73BB
:1032E300E9F513AA08AB09121C79E513700302353B
:1032F30007750E00800F8E828F83A3A3A3A3A3E081
:10330300D2E3F0050E1244CCE0F8E50EC398400377
:103313000234FEE51370030234FEE50E75F006A4D5
:10332300F8A9F0E50828F8E50939F9E8240FFEE4DF
:1033330039FF8E828F83A3A3A3A3A3E0A2E040C39C
:10334300750F00750A08750B00E5156003750F20EE
:103353007C087D007900AA18AB191213A38E828F03
:1033630083E06037901369E064017017E50FD2E3DF
:10337300F50F750B108E828F83123529125FA87497
:10338300FF8028430F0C750A0C8E828F83A312359E
:103393001FA3A3A3A3127033A38010E5166009E54E
:1033A3000FD2E6F50F750A0A123529F07402120FCF
:1033B30058E50FF012477F350DF583E0C0E0740444
:1033C300120F58D0E0F07405120F581265C8121E80
:1033D300A7740C120F58E060030234E17408120F53
:1033E30058125E278E828F83A3A3A3A3F0740812BF
:1033F3000F581255DBE50AF0A3E50BF012558BE5E8
:10340300141232B76011901369E0C0E07408120F10
:10341300581255CBD0E0F07408120F581244ECA3A5
:10342300A3A312351A12558212566912709E1235D1
:103433001A125579EAF0A3EB126BD0C0E012556F64
:10344300D0E0126C94C0E07408120F581250C1D02F
:10345300E012687DC0E07408120F581250B5D0E036
:10346300F07408120F5812351F1250A4123672123C
:10347300351A242CF582E439F583125669E50C12CA
:103483004F01350DF583E0C0E012509CD0E0F0749D
:1034930008120F58125DC5850C82850D83123511F4
:1034A3002428F582E43B12658DE50C124775350D32
:1034B300F58312704E7512007810120CB612477F06
:1034C300350D1265B9EA1267FA3BF583125DC51231
:1034D30013977403120C7CAA18AB19121EAD8E82BB
:1034E3008F83A3A3A3A3A3E0D2E0F0740C120F581D
:1034F300E060030232F915130233067900AA08AB20
:1035030009121D45740D120C7C7F0F0209A3A3A39E
:10351300A3A3124A98EA22125DCFE822124A9885A1
:103523000C82850D8322A312352E2212654FE8F0FB
:10353300A3E92274EE12079C74E9120D308A088BFA
:1035430009890A8A828B83A3A3A3A3A3A3A3A3E0CA
:10355300F9121C9D8A0C8B0DEA450D70030236018E
:10356300125C8D124182E50A60030236067C0485F3
:103573000882850983A3A3A3A3A3A3A3A3E0F912AA
:103583001CA3EE4F60788E828F83A3A3A3124A936A
:103593007406120F58E8F0A3E9126993F8A3E0F94F
:1035A3007408120F5812565CC0E07410120F58D0F2
:1035B300E0123672124A93740E120F5812658F740A
:1035C30011120F58E4125E4AC8241FF582E438F53D
:1035D30083125A8AC413135403FC70027C048E8230
:1035E3008F83E0F9780C120CBA742059FD7440599A
:1035F300F97402120D20121D397402120C7C741717
:1036030002703E7C08850882850983A3A3A3A3A334
:10361300A3A3A3E0F9121CA38B0FEA450F700302C7
:103623003585EE4F60D8E50AF50B780B120CBE8595
:103633000C82850D83A3A3A3A3A3A3A3E0F50B7817
:103643000B120CBE8A828B83A3A3A3E0FB8A828521
:103653000F8312416A8A82850F83E0FA8E828F83F9
:10366300A3A3E0F912259D7402120C7C023589F0A4
:10367300850C82850D83A3A3A3A3A3A3A3A3227471
:10368300F712079C74FA120D30E9FE7C017D017F6D
:103693000080037D000F1258D0E0F8EFC398502844
:1036A300EF75F006A4F885F008A908EA28F8EB39C5
:1036B300F9E82414126272A2E050D8540C60D4E0EA
:1036C300A2E250D17C0080CD8A828B83A3A3A3A3E3
:1036D300A3A3E0703DEDA2E0400574016E70338A50
:1036E300828B83A3A3A3A3A3A37401124F69E0C096
:1036F300E07403120F58D0E0124F61E0C0E074048D
:10370300120F58D0E0F07405120F58EC1265CA126C
:103713001ECB7406025199C082C0837901121D45E4
:103723000263BC74F412079CEA4B90161E6022E4F9
:10373300F08A088B09F50AF50B7808120CB27A02A5
:103743007B009012C8E0F91215357404120C7C80CA
:103753000F7401F07A027B009012C8E0F912154150
:1037630080057402120C7C7F040209A3C082C0830B
:103773009014ADE075F005A4FCADF079007A227BDE
:10378300081213A37A00800A12391374FEF0A304FB
:10379300F00A9014ADE0F8EAC39840EC0263BCC0B1
:1037A30082C0837A007B0080037A010B9014ADE022
:1037B300F8EBC3985056EB75F005A4F8ACF0EC1297
:1037C300392A7003A3E0F460E2742228F8740839FC
:1037D300F9E82403F850010988828983E024FFF083
:1037E300A3E034FF1260D2F9E84970BDEB75F00530
:1037F300A4F8ECF9742228F8740839F988828983CB
:1038030074FEF0A304123B7AE4F0809FEAA2E05036
:1038130017908102120AA17A047B009012C8E0F982
:103823001215357404120C7C0263BC74F712079CE6
:10383300EAFEEBFF9014ADE0700302390AEE2411A7
:103843001258DB700302390A8E828F83A3125DBD87
:103853001220C9E96402600F8E828F83A3A3A3A3FE
:10386300A3E0700302390A7A008027123932124129
:103873006B123913E06C7003A3E06D7014EE241225
:103883001258DBFC742428F58274081262756C608C
:103893007B0A9014ADE0F8EAC39840CF7A00800128
:1038A3000A9014ADE0F8EAC3985061EA75F005A4F4
:1038B300F8ABF0EB12392A7003A3E0F470E2742240
:1038C30028F874083BF912393212682AEAF0A3EB9C
:1038D30012393A88828983123B73740C1256267A02
:1038E30004FB9012C8E0F9121547EA4B4C4D7017D0
:1038F300908102120AA17A047B009012C8E0F912A7
:1039030015357404120C7C790102519C790080F9FD
:10391300EA75F005A4F8A9F012391F22742228F5DC
:1039230082740839F58322F912391FE064FE22EE0E
:103933001269403FF58322F0126E1CE02274E812F4
:10394300079C74FC120D307402120F58E4F0A3F0BC
:103953009012E3124182851882851983E4F0A3F063
:10396300751401901313E0A2E350030239F6121504
:10397300598A088B098C0A8D0B8A0C8B0D8C0E8D42
:103983000F9012E5780C120D00123A717810790C31
:10399300120E9350077A017B00023A65850C148559
:1039A3000D15850E16850F177814791012072DA89B
:1039B30014A915901610E0C398E4995003E0800110
:1039C300E8F514123A71780C791012072DE4F51208
:1039D300F51378087910120DAF9012E57808120EDE
:1039E300E38010123A6A1259C1FAEFFB12146FAE58
:1039F30008AF09EE4F60638E828F83A3A3A3E0F821
:103A0300E514C3985029EE2403F582E43FF583A817
:103A130014E0C398F060217402120F58124C711213
:103A2300562BEEF0A3EF126882FEA3E0FF80C48E54
:103A3300828F83A3A3A3E4F08E828F83125CBD8560
:103A43001882851983125E458E828F83A3A3A3A355
:103A53006091126547126098808C7402120F58129D
:103A63005DC57404023292124A989012E3229016B2
:103A73000EE0F510A3E0F511E4F512F5132274F24C
:103A830012079C8A0A8B0BE9FE7A007B009012E3F3
:103A9300125CC19012E3125E45601E0A850882859E
:103AA3000983A3A3A3A3125E45600E0AEA70010B68
:103AB30088088909E8450970E3901611124A94C3EE
:103AC300EA98EB994003023B707A067B0012146973
:103AD3008A0C8B0DA80CA90DE8497003023B708872
:103AE300828983E50AF0A3E50BF0EE88828983A33C
:103AF300A3F09016101262CCA3123B73A3E4F0A3BD
:103B0300F09012E3124B02600F850882850983A3AC
:103B1300A3A3A312658F801F9012E312658F9013E6
:103B230013E0A2E34011121559EAF8EBF9ECFAEDB0
:103B3300FB9012E5120F1D901313E0A2E3502E7AAF
:103B4300087B009012C8E0F9121547EA4B4C4D7000
:103B53001C90160E1276737808120CB27A087B004A
:103B63009012C8E0F912153B7404120C7C022EBDAE
:103B7300A3A3123B7AA322126257A3A322C082C03B
:103B830083E990161FF09012DD748DF0A3741DF07D
:103B93009012DF749FF0A3741DF09012E174B1F0E2
:103BA300A3741DF00263BC74F712079CEAFEEBFFDB
:103BB3008908EE4F700312246B9012E9125E457070
:103BC300089012E98022124A9488828983A3A3A3CE
:103BD300A3A3A3A3A3A3124B0288828983A3A3A3B2
:103BE300A3A3A3A3A3A370DEEEF0A3EF123C01A350
:103BF300A3A3E4F0A3123C01E508F002519C123C9C
:103C03000522123C0922F08E828F83A3A3A3A3A3D0
:103C1300A32274F712079C9012E9800D8E828F8382
:103C2300A3A3A3A3A3A3A3A3A3124182EE4F603430
:103C33008E828F83A3A3A3A3A3A3A3E06970DD8EC6
:103C4300828F83A3A3A3A3E06A7003A3E06B70CC6A
:103C53008E828F83A3A3A3A3A3A3E06C70BEEEFA0B
:103C6300EFFB80047A007B0002519C74F712079CDF
:103C73009012E91241829012E9123515687002EB35
:103C830069701EE0C82409F582E438F583124A946A
:103C93009012E912658F9012E91241828027124136
:103CA30075EE4F60208E828F83A3A3A3A3A3123547
:103CB30011687002EB6970E68A828B83A3A3A31257
:103CC3003CD212658F12146FEEFAEFFB02519CA3E4
:103CD300A3A3A3A3A31244E0A3A3A3A3A32274F0C7
:103CE30012079C74FA120D308A088B098A828B831F
:103CF300A3A3A3A3A3A3A3A3E060336401602F8AB8
:103D0300828B83125DC51220C9E9702285088285E2
:103D13000983A3A3A3A3A3A3A3A3E06403701474BD
:103D230004120D28AA08AB09121E41E97016790284
:103D3300023EDD850882850983124A947404120FBA
:103D43005812658F126E0F24341265021214698A99
:103D53000A8B0BAE0AAF0BEE4F7003023EDB7C34D3
:103D63007D0079001213A37402120D208508828549
:103D73000983A3A3A3A3A3A3A3A3A3E0F912255594
:103D83007402120F58E0C0E0123EECD0E0F0EE24D3
:103D93002EF50AE43FF50B7403120F58E0850A82EF
:103DA300850B83F07901EEFAEFFB121D7B85080C7E
:103DB30085090D750E00780C120CB67C1E7D001261
:103DC3003EF41213977403120C7CEE243212429ABF
:103DD3002434F8E43FF98A828B8312658FE5082443
:103DE30011F8E43509F9E8FCE9FD8C828D8312555D
:103DF300E7243012658912429212792C120CB68C88
:103E0300828D83123F03125DC51213977403120C44
:103E13007C7404120F581244DC12658F9012C9127D
:103E23003EFCA3A3A3F09012C9E004F01215598E2F
:103E3300828F8312561F242C1247AE750D00850AFC
:103E430082850B83E0780C120DFD8A828B83E50C4F
:103E5300F0123EE2E50C12562BE4F0E508241512AD
:103E63006E13A2E074015007120F587401800412FC
:103E73000F58E4F0EE2429125CB4AA18AB191225EA
:103E83006DE924FE850882850983F0EE2430F8E489
:103E93003FF9E8FCE9FD123F0B1205DEE88E828F45
:103EA30083A3A3A3A3A3A3A3A3F0123F0B1205DE33
:103EB3008B09EA4509600F8E828F83A3A3A3A3A373
:103EC300A3A3A3E004F0EE24201258DB4408124716
:103ED300FA1213FD79008002791074060242CEEEC5
:103EE300242BF582E43FF58322EE1267FA3FF58334
:103EF30022EE240BFAE43FFB22126974A3A3A3224C
:103F030012416F8A828B83228C828D8312584AE0FE
:103F1300FA7B002274F412079CEAFEEBFF12155998
:103F2300125665901604E0F8EE242D1258DBC39860
:103F330040030240771247BA7013EE242D1258DB68
:103F4300041242BFE0C0E0123EE2D0E0F0EE242AC9
:103F53001258DBFC7900800109EE242E1258DBF89D
:103F6300E9C3985026750801750900E97808120D10
:103F7300FD1247BA550860E0E92CFC750801750984
:103F830000E97808120DFDE04508F0EE24291240FF
:103F930089EE2430F582E43FF583EC8AF0A4F8AB94
:103FA300F0E42BF9E098F8A3E099F9C3E89AE994CF
:103FB30000EE403424291258DBF81247BA602F125E
:103FC3003EEC124097A3E4F0EC704AEE2420125822
:103FD300DB4420125660C0E01258F9D0E0F0EE2422
:103FE30032124089A3E08052123EE374FFF0901333
:103FF30009E0FA90160712408EABF075F064A4FA4C
:10400300ADF075F064EBA42DFB8E828F83A3A3EA3E
:10401300F0A3EB80B2EE24201258DB54DF1258F4E5
:10402300ECF0FAEE2429F582E43FF58312408EFA90
:10403300ABF0EE1255693F1247D0FB126C78EAF0F1
:10404300A3EB12699CC0E0EE2425F582E43FF583DF
:10405300D0E01255F7E81256269012EB125E456037
:104063000BECF91278441225C0E97017123EF412D2
:104073001E17800F7BE91242B01225A3EEFAEFFB65
:10408300121D8702376A12559FFA22E0F508EA8566
:1040930008F0A422126974A3F02274F412079C900E
:1040A30012E91241821215598A0A8B0B78FF79FFA4
:1040B3008020E0C39AFCA3E09BFDC3EC98ED9950EC
:1040C3000E8E828F83A3A3E0C39AF8A3E09BF91219
:1040D3004175EE4F605C8E828F83125DC5E50AC326
:1040E3009AFAE50B9BFB8E828F83124169C3EA9C8C
:1040F300EB9D8E828F83A3A340B8A3A3A3A3E06405
:1041030002701AEE240B1247BD6009124795125D27
:10411300C51213C1EEFAEFFB121D878007EEFAEF0B
:10412300FB121D937A017B0090161FE0F91213FD19
:10413300802974FF68700374FF69601F8808890908
:10414300E4F50AF50B7808120CB27A017B0090169D
:104153001FE0F91215357404120C7C02376AA3A30D
:10416300A3A3A3A3A3A3A3A312416F22E0FCA3E0F1
:10417300FD228E828F83A3A3A3A3A3A3A3A3A3E060
:10418300FEA3E0FF2274F012079C8A088B09ECFA65
:10419300EDFB890A7C01126E0FF9121D818A0C8BCB
:1041A3000DAE0CAF0DEE4F7003024290E50A6003B3
:1041B3000242901242921242A86860030242901295
:1041C3004292E0FAEE242E1258DBF8EA28FAE4349D
:1041D30000FB8E828F83A3A3A3A3A3A3A3A3E0F8CF
:1041E300EA98EB9400C365D033401CE5082414120D
:1041F3006E13F470127B001242B01225A3EEFAEF95
:10420300FB121D87024290E5082414126E13F4700A
:1042130041EE242B12429A242EF8E43FF9E8FCE9FC
:10422300FD7508FF7509008C828D83E07808120DF7
:10423300FD8A828B83E5081242BFE508F08C828DEC
:10424300831242A828F0EE242DF582E43FF583E49F
:10425300801BE5082414F8E43509F9E0C0E01242B4
:10426300C4D0E01260CEC0E0123EE2D0E0F01215FE
:10427300598E828F8312561F123EED1242A4A3124F
:1042830056267A01FB90161FE0F91213FD803FE5D5
:104293000824131244D422F8E43FF9E8FAE9FBEEC8
:1042A3002212697422E0F8EE12625DE022EE24220B
:1042B30012559FFAEE241412559FF922F01242C4AC
:1042C30022EE242CF582E43FF58322120C7C7F0836
:1042D3000209A374EC12079C74FE120D308A0A8B38
:1042E3000B8C0E8D0F89108A828B83A3A3E0F912A6
:1042F30025798A088B09AE08AF09EE4F70077A005B
:104303007B000244B87A127B001214698A088B0975
:10431300EA450970030244B47C127D00790012134C
:10432300A3AA18AB19850A82850B83A3A3E0F9120C
:104333002555E508240FF50CE43509F50D74011234
:104343000F58E0850C82850D83F07902AA08AB092A
:10435300121D7B850E82850F831244EC1244FA12E0
:10436300476E12697BF07512FF751300850C828509
:104373000D83E07812120DFD12709EE5121250CDDE
:10438300127842E0C0E01244CCD0E0F012478BF543
:104393000CE508240D1270A2E50CF0E50A12479D06
:1043A300850CF0A4A9F02427FAE439FB1213BB8A85
:1043B3000C8B0DAE0CAF0DE508126B90EEF0A3EF76
:1043C300F0EE4F70030244A78E828F83741A125645
:1043D300268E828F83A3A3F0A31245001244DC121E
:1043E300658FAC0EAD0F126C8212255B850A828538
:1043F3000B83A3A3A3E0C0E0125A7CD0E0F0901398
:10440300261255E724101244F41255D5350B1255D4
:10441300E51265ACE8F0A3E9124500A3A3A3A31238
:1044230055E72412126589850A82850B83A3A3E0CD
:10443300C0E01244C2D0E0F0E50A124F211247A9AE
:10444300E0C0E0126933D0E0F07416120F58126B1B
:10445300AAC0E0126DFDD0E012698EC0E0126B9627
:10446300D0E0126BB3C0E0126BA0D0E01255ECE5C4
:1044730010F07418120F58120F29EE241AF582E463
:104483003FF583120F1DEE2427F8E43FF9EE2422B3
:104493001244F41264FA1247A9E0C0E0126C8AD005
:1044A300E0F0800DAA08AB09121D87750800750995
:1044B30000AA08AB097402120C7C7F0C0209A3EE5C
:1044C3002414F582E43FF583221244D022E5082424
:1044D3000BF582E43509F583221244E022126D2C98
:1044E3008E828F83A3A3A3A32212584AA3A3A3A3B9
:1044F30022F582E43FF583125656E50A22F0850A37
:1045030082850B83A3A3A3A3A3A32274ED12079C09
:104513008A0A8B0B8C108D118912750900EA1247D8
:104523009DF5089012EB125E45600EA908127844BF
:104533001225C0E960030247697C02851082851158
:1045430083125DC5E50A12476EE0F9121D818A0CDC
:104553008B0DAE0CAF0DEE4F7054850A82850B8325
:10456300A3E0A2E040030247697415120F58120A30
:10457300A17417120F58120AA5A912AC10AD11AAF3
:104583000AAB0B121DA57406120C7C8A0C8B0DAEA4
:104593000CAF0DEE4F70030247698E828F83A3A386
:1045A300A3A3A3A3A3A3E5081247FA1213FDA80824
:1045B3008E828F83A3A3A3A3A3A3A3A3E024FFFAC1
:1045C300E434FFFBEA684B7003750901EE240B1218
:1045D30047BD700302471E850A82850B83A3E0A2B1
:1045E300E050037508001247E7E5089AE49BC365AA
:1045F300D033401CE0F8EE240E1258DB28F0750C83
:10460300FF750D00E8780C120DFD1263EEE50CF05A
:10461300E50A124775350B1232AB120CB6E50A12D6
:104623004781350B1265B9EE240D1258DBF50CE505
:1046330008850CF0A4FAABF0124795125DDD242235
:10464300F582E4381247D0FB1213977403120C7CE3
:10465300750C011247C2780C120DFD1258D8450C87
:10466300F0E509A2E05063EE240C1247AE1247C2F4
:1046730004780C120DFD8A828B83E0450C12560AD6
:1046830085080C850CF0A4F8A9F012478BFCE82CE4
:10469300FCE439FD124795125DDD2420F582E438F0
:1046A300F583ECF0A3ED125637F4701EEE240BF5F0
:1046B3000CE43FF50DEE1247813F1247D91213C7A1
:1046C300850C82850D8374FF80501215591256652F
:1046D300901309E0FA901607E0F50CEA850CF0A4B4
:1046E300FAABF0F8EBF9901604E0F50CE8850CF062
:1046F300A4F8ACF0850CF0E9A42CF9EA28F8EB391E
:10470300F9E875F064A4F8AAF075F064E9A42AF94D
:104713008E828F83A3A3E8F0A3E9F0A8081247E7EA
:10472300EA24FF1AEB34FFFBEA687001EB600EEE3C
:10473300240C1247BD6006E509A2E05029E50A12E0
:1047430047A2ECF01258D8C0E0E50A2414F582E43D
:104753001247A9D0E0F0AC0AAD0B85108285118316
:10476300125DC5121E057F0B0209A3124F011247EA
:10477300A92212477922240EF582E422E50C12477E
:1047830085222410F582E422E50A1247851247A9FF
:10479300E022EE1247853FF583221247A2E0221260
:1047A3004EFB1247A922350BF58322F8E43FF9E8C3
:1047B300FAE9FB750CFF22EE242B12559FF42275A8
:1047C3000D0012559CF5F0E50884E5F022F583E031
:1047D3002AFAA3E03B22F583125DCF850C82850D77
:1047E30083E0F922EE240E12559FFC12559CFAEC3D
:1047F3002AFAE43400FB22F07A017B0090161FE0D2
:10480300F922C082C08390161FE0F91213C7026316
:10481300BC74F412079C8A088B09EB5480703BEA42
:10482300A2E05053121D99E5086401FAAB09804BCD
:104833008E828F83E06401701A12488D120AA112CE
:104843004881120CBAEE2412124895121DAB74065D
:10485300120C7CEEFAEFFB1213C190161FE0F91253
:1048630013D38A0A8B0BAE0AAF0BEE4F70C2AA08A2
:10487300E5096480FB80047A007B0002376AEE243A
:104883000FF50AE43FF50B780A22EE124EFB3FF5D3
:10489300832212559FF9EE2402FCE43FFDEE241916
:1048A300FAE43FFB2274F112079C890A8A088B09F8
:1048B3008A828B83125DC5121DC38B0DEA450D6081
:1048C3000579B8024950121DE1E9F8902B6BE49386
:1048D300F9E8C399400479B280737A157B00121406
:1048E300698A0C8B0DAE0CAF0DEE4F7004791080FE
:1048F3005C8E828F83E4F0A31269A8A3E50A126B8E
:10490300C3120CB67C127D00EE2403FAE43FFB12C3
:1049130013977403120C7C9012ED125E459012ED06
:104923007006EEF0A3EF801FE0FAA3E08003E8FA3D
:10493300E9FB8A828B83125E4570F3EEF8EFF98A06
:10494300828B83E8F0A3E9F0121DF37900025FB3D1
:10495300C082C0839012ED80048C828D8312416BE0
:10496300EC4D60288C828D83A3A3E069600574FFFE
:104973006970E68C828D83A3A3A3E06A7003A3E02E
:104983006B70D6EC2403FAE43DFB80047A007B00D1
:104993000263BC74F712079CE9FD74FE6D70047C1E
:1049A3000180027C009012ED80096D70027C018809
:1049B300828983125E45601F88828983A3A3A3E053
:1049C3006A7003A3E06B70E7ECA2E088828983A39B
:1049D300A3E050D6F9800279FE02519C74F61207C7
:1049E3009CE9FF7E009012EDE0FCA3E0802D8C8219
:1049F3008D83A3A3E06F701E8C828D83A3124A283C
:104A030025E0F8E433F9EA28F582EB39F583E50884
:104A1300F0A3E509F00E125CCDFCE9FDEC4D70CE80
:104A2300EEF9024F9BA3A3125CC5EE2274F71207A3
:104A33009CE9FE9012ED124A947C007D00800BE805
:104A4300FCE9FD88828983124A94E849603D8882A3
:104A53008983A3A3E06E70E788828983A3A3A3E07D
:104A63006A7003A3E06B70D7EC4D8882898370086A
:104A7300125DC59012ED8003125191126521FAE97E
:104A8300FB12146F121DF379018002790002519C0D
:104A9300A3124A9822126D2C2274F512079C890ADC
:104AA3009012ED125DC57508007509008015125846
:104AB30046E8F0A3E9125637FEA3E0FF12146FEEA7
:104AC300FAEFFBEA4B602B8A828B83A3A3E0650A90
:104AD3007012E50845098A828B8370D2124A94903A
:104AE30012ED80CD8A088B098A828B83E0FAA3E0DA
:104AF30080D0121DF38003120C7C7F030209A312E2
:104B03005DCFEA4B22C082C08379009012ED800111
:104B130009125DC58A828B83E582458370F2026345
:104B2300BC74F612079CE4F508F5097808120CBA70
:104B3300902B6BE49375F013A4A9F0124C66121436
:104B4300E17402120C7CE9FE6003121DED024A239C
:104B530074F612079C74FE120D3085188285198332
:104B6300E4F0A3F0A818A919880889097808120C99
:104B7300BA7508027509007808120CBA7C007D002A
:104B83007A427B001214ED7404120C7C024F96746B
:104B9300F512079C74EB120D30851882851983E496
:104BA300F0A3F09012EDE0FEA3E0807E8E828F836F
:104BB300A3A3E0C0E07402120F58D0E0125FA8A9CB
:104BC30082AA8389088A09750A007808120CB67CC0
:104BD300127D007406120F58AA82AB8312139774C6
:104BE30003120C7C7402120D1888088909780812C4
:104BF3000CBA7508137509007808120CBA740412FC
:104C03000F58125CD175F013A4F8AAF075F013E9EC
:104C1300124C621214ED7404120C7C8518828519EF
:104C230083124C71126D21E8FEE9FFEE4F6003021F
:104C33004BAFA818A919880889097808120CBA7506
:104C430008027509007808120CBA7C007D007A42CC
:104C53007B001214ED7404120C7C7415024AFAA43E
:104C63002AF9E82402FCE439FD7A427B0022E0249D
:104C730001F0A3E034002274F412079C74EB120DCC
:104C8300307E007F00A818A91988088909780812BE
:104C93000CBA7508028E097808120CBA7C007D00E4
:104CA3007A427B001214F37404120C7CE9706E8E4A
:104CB3000880587402120D18880A890B780A120C9E
:104CC300BA750A13750B00780A120CBAE50875F069
:104CD30013A4F8AAF075F013E509124C621214F349
:104CE3007404120C7CE9701B7403120F58AA82AB74
:104CF300837402120F58E0F9121DBDE970050EEE20
:104D030070010F0508E508700205098518828519E9
:104D130083124A94C3E50898E509994096EEFAEFA1
:104D2300FB741502376774F612079C8C828D83A37C
:104D3300A3124F57F0EA2417F582E43BF583E0C052
:104D4300E0124F27D0E0F0124F07124A94124F118E
:104D5300124F57A3F0A3F0EA241FF582E43BF58337
:104D6300124182EC1255D53DF583EEF0A3EFF0EA44
:104D73001263E83BF583124F38A3A3A3A3A3A3EEC7
:104D8300F0A3EF1260CEFE8C828D83124F817403E9
:104D93005EFEC394034003024EEEEE600574026EA2
:104DA30070798C828D83E0540CFE740C6E70030258
:104DB3004E5BE0A2E4400D88828983E08C828D8380
:104DC300A3124F8974086E6003024E5B124F19746D
:104DD30001F08A828B83A3A3A3A3A3125FA27014FF
:104DE3008C828D83E0440C124F61A3A3124F38EEE3
:104DF300F0A3EFF08C828D83E0A2E4401E124F46B5
:104E0300124F72500109124F46A3A3124F72500161
:104E13000988828983124F2F124F8188828983E008
:104E2300C0E0EC124F013DF583D0E0124F818C823C
:104E33008D83E0A2E7507888828983E0FE8C828D9F
:104E430083124F8974FC5E700C8C828D83A3E054B3
:104E5300036403701B024EEE124F19E4F0740C6EE0
:104E63006003024DD5124F46124F74508709808458
:104E73008C828D83A3E05403603888828983E0C0E9
:104E8300E0EC124EFB3DF583D0E0124F8A8C828D0D
:104E930083E054036402701A88828983E0C0E0ECE3
:104EA3002414F582E43DF583D0E0124F8A8003A3F6
:104EB300E4F0EC1247753D12658DEC2410FEE43DE1
:104EC300FF124F07E0F5088E828F83E0C398250811
:104ED300F508F0EA241712653DC39508C0E0124FA8
:104EE30011D0E01260CEC39508500A124F11E4F0BE
:104EF300124F27E4F0024F9B2413F582E42224117E
:104F0300F582E422EA241DF582E43BF58322EC12C8
:104F130063E83DF58322EC124F213DF58322240CF7
:104F2300F582E422EC1247853DF58322E08C828DE5
:104F330083A3A3A322E0FEA3E0FF8C828D83A3A31C
:104F4300A3A32288828983E0F508A3E0FFE5088C08
:104F5300828D8322E4F08C828D83A3A3A322124F3C
:104F630069A3A3A3A322F08A828B83A3A3A322A36F
:104F7300A3A3A3A3A3F0A3EFF0E82402F822124F04
:104F830091A882A98322A3124F9108A983221262B6
:104F930057A3227402120C7C7F020209A374F41239
:104FA300079C74F3120D308A0A8B0BECFEEDFF8E17
:104FB300828F83E0540CF508E0A2E75006E508D29F
:104FC300E7F508E508D2E1F508125FA27006E508E7
:104FD300D2E4F508E0A2E55006E508D2E5F5087C41
:104FE300087D007900AA18AB191213A37402120FDB
:104FF30058E5081250CDC0E07403120F58D0E012E8
:10500300562BE50AF0A3E50BF07405120F58126551
:10501300C8121EA7740C120F58E070787408120F90
:1050230058125DDD1264FA381269B3C0E0740812D5
:105033000F581250C1D0E012687DC0E07408120FFF
:10504300581250B5D0E0F07408120F581265C01210
:1050530050A412566012561224111258DBC0E012EB
:10506300509CD0E0F0EE24141258DBC0E074081218
:105073000F58125DDD2435F582E438F583D0E01254
:105083005602C0E07408120F581255BFD0E01265E3
:10509300CA121EAD740D023767E812556939F583DC
:1050A30022125DC9E8242AF582E439F583EAF0A3E4
:1050B300EB221268732427F582E438F58322126801
:1050C300732426F582E438F583221269A8E022745A
:1050D300F712079C7E008A828B83A3A3A3A3A3A3B7
:1050E300A3A3A3E06404600302517E125E5EE0604A
:1050F3000302517E1251823B125E43607E88828995
:1051030083E054037075E8240C126272FA8C828D6A
:1051130083A3A3E0FBA3E0CB124F013BF583E06A3B
:10512300705988828983A3A3A3A3A312518DE06A34
:105133007003A3E06B70448882898312518DA3A30B
:1051430012628724061258DB6A7003A3E06B702B8C
:1051530088828983A3A3E0F88C828D83A3A3E0F9DB
:10516300A3E0F5838982A3A3E068600D8C828D831D
:10517300125A88540C640470027E01EEF9801AEA14
:1051830012518722240FF582E422A3A3A3A3125D65
:10519300CF8C828D8322120C7C7F010209A374F6CB
:1051A30012079C74FC120D30EAFEEBFFECFAEDFBE8
:1051B3008A828B83A3E0540360169012DF125E454C
:1051C30060597900EEFCEFFD1278441225C0804B44
:1051D300851882851983EEF0A3EFF07402120F583D
:1051E300125669AC18AD197A0B7B1E1220038A087C
:1051F3008B09A808A909E849602188828983A3A3A8
:10520300A3A3A3A3A3A3A37406F07A00888289832C
:10521300125DDD126809E0F9121F6D7404024F98E4
:1052230074F212079C74F3120D30EAFEEBFF8E82C8
:105233008F83A3A3A3A3A3A3A3A3A3A3E0F50A908C
:10524300161EE0700579BA025564750801750900E8
:10525300750C00750D007C087D007900AA18AB1948
:105263001213A37405120F58740112563E540460AE
:10527300127402120F58E0D2E612563E540870031D
:10528300750803E05410600674404508F508E054BF
:105293000860227402120F58E044C012563E542094
:1052A300600A7403120F58E0D2E080087403120FEF
:1052B30058E0D2E1F0EE24151258DB1255A7700323
:1052C300740169700674084508F5088E828F83A3FC
:1052D300A3A3A3A3A3A3A3E0701612205785188248
:1052E3008519831256697402120F58E0D2E2802C9A
:1052F300640F70107402120F581256467404450856
:10530300F508807B8E828F83A3A3A3A3A3A3A3A368
:10531300E064028E828F83700612352AF08060A3C8
:10532300A3A3A3A3A3A3A3E06403700DAC18AD19B7
:10533300EEFAEFFB121E4180468E828F83A3A3A356
:10534300A3A3A3A3A3E064017035901369E06010E5
:105353007402120F58125646750910750AFF801809
:105363007402120F58E0440C12562B74FDF0A37410
:10537300FFF074044508F5088E828F831255B3EE4F
:1053830024151258DBA2E0503F7402120F58E05468
:105393000C701B8E828F83125DC5121A6FE9700524
:1053A30079BB0255647402120F58E0D2E5F0EE2483
:1053B300151258DBA2E050107402120F58E0540C7F
:1053C30064047004E0D2E5F0EE24111258DBC0E06F
:1053D3007404120F58D0E01265CA121EA7740C127F
:1053E3000F58E0600302555D7408120F581255DB25
:1053F300E508F0A3E509F0EE24181258DBC0E0122B
:10540300558BD0E01255ECE0C0E07408120F58122F
:105413005DDD124EFB38F583D0E0125660640170F7
:1054230011901369E0C0E07408120F581255CBD0E5
:10543300E0F07408120F581255E72417124089E858
:10544300125582EA125626EE2415FAE43FFB8A82AD
:105453008B8312416BE8125579ECF0A3ED1255F7EB
:10546300E0C0E012556FD0E01256371255A7700313
:1054730074016970137408120F58125E27FAEE2430
:105483001D1258DBF9121CA98E828F83A3A3A3A339
:10549300A3A3A3A3A3E0C0E07408120F581250C142
:1054A300D0E0F07408120F581250B5E50AF07408F2
:1054B300120F58125CD12428F582E439F583E50CE8
:1054C300F0A3E50D12560AFAA3E0FBE8242A1256CC
:1054D30019240F1258DB12561224171258DBC0E09E
:1054E300E82433F582E439F583D0E0F0125595C012
:1054F300E07408120F581255BFD0E0F0EE241A12D0
:1055030058DBC0E07408120F58125DDD125569387C
:10551300F583D0E0125602122E57120CB6126B8886
:1055230012416B740B120F58126950FAA3E0FB126D
:1055330013977403120C7CEE24151258DB5440604D
:10554300129012F9125E45600AAA18AB1912784438
:105553001225C0AA18AB19121EAD740C120F58E015
:10556300F9740D022EBA2432F582E422E82420F5E0
:1055730082E439F58322241EF582E439F58322245B
:105583001CF582E439F58322E82412F582E439F527
:105593008322EE241B12559F22EE240FF582E43F53
:1055A300F583E0225480F8A3E05401F97480682263
:1055B3001255B722E0F50CA3E0F50D22126873240F
:1055C30034F582E438F583221268731255D538F521
:1055D30083222415F582E422125CD512518739F512
:1055E3008322F583124A98EE22F0EE2419F582E421
:1055F3003FF58322F0EE241CF582E43FF58322F08D
:10560300EE241312559F22F0EE240D12559F22FA19
:10561300A3E0FBE8242CF582E439F583EAF0A3EB5D
:10562300F0EE22F0A3E4F02212562F22F085188226
:1056330085198322F08A828B83E022F0EE241512EF
:10564300559F22E0D2E3126D25125650228518820F
:10565300851983E8F0A3E9F022E8F0A3E912685D75
:10566300E0228E828F83EAF0A3EBF02274F7120715
:105673009C7E638A828B83E0600C7905121F37E975
:10568300F87456C398FE901311E0600CF9121F379B
:10569300E9F8EEC39824F2FE02517E74F612079CD9
:1056A30074FE120D30851882851983125669E9FE3E
:1056B300ECFAEDFB900304125E456035A818A919B6
:1056C300880889097808120CBA7D01740E120F58E4
:1056D300E0FCEEF99003041268251225C07402124F
:1056E3000C7C8B09EA450960047900800679B28055
:1056F3000279B6024F9674F712079CE9FE9012D511
:10570300125E45601F7409120F58E0F508780812FD
:105713000CBEEEF99012D51268251225C074011241
:105723000C7C800279B602519C74F712079C89089D
:10573300ECFEEDFF79B5E508245E601F14600624D6
:10574300F86033803C900306124B026034900306EA
:105753001268251225C012566580249012D7124173
:105763006BEC4D601CEEFCEFFD9012D71268251216
:1057730025C0E9F9800B9012D3126964121571796F
:105783000002519C74F712079CE9FE79B574AB6E65
:10579300700B9012D3125DC5121571790002519CE2
:1057A30074F212079C8A088B09ECFEEDFF750A015F
:1057B300901319E065087004A3E0650970141220C2
:1057C300518A088B09AC08AD09EEFAEFFB1215718B
:1057D300802A12205D8A0C8B0DE508650C7004E5A8
:1057E30009650D7009EEFAEFFB122063800EEEFCE3
:1057F300EFFDAA08AB09121B9BE9F50AA90A022EC1
:10580300BD74F212079CEAFEEBFF8C088D09750A42
:10581300011220518A0C8B0DAC0CAD0DEEFAEFFB8F
:1058230012156BE96401700B901319125846126537
:105833008F800EAC08AD09EEFAEFFB121BA1E9F560
:105843000A80B912584A22126D2C85088285098371
:105853002274F612079CEAFEEBFF7A0D7B0012140A
:1058630069EA4B6065EE2424126D4CF0EE24251298
:105873006D4CA31258F4126D52A3A3126BB81258B5
:10588300DFF0EE242A1258E81259BD242C1258E8EE
:105893001259BB242EF582E43FF5831258DFA3A3EC
:1058A300A3A3A3F0EE24331258DBC0E01258D0D0E8
:1058B300E01269B71258EBA3A3A31259BB24321207
:1058C30058DBC0E0125E5ED0E0F0024F9BEA126943
:1058D300403BF58322EE240C12559F22E08A828BF3
:1058E30083A3A3A32212559FF8A3E0F98A828B8393
:1058F30022F01258F922EE2426F582E43FF58322A2
:1059030074F412079C74FE120D30ECFEEDFFEE24CE
:10591300161258DB64057010EE2406FCE43FFD12FA
:105923001E3BE970030259B0AC18AD19126C821218
:105933001A75851882851983125E45606C8E828F75
:1059430083E064017059E875F009A4F8AAF075F0D2
:1059530009E9A42AF9745428F8740039F9E8FAE932
:10596300FB8A828B837808120F01EE1259B5120E4F
:10597300C340288518828519831255E7125A7D1270
:1059830059C11259B5120F0190810A7808120DEA14
:105993008A828B837808120EE3800A79A28010EE44
:1059A300240F1265897900800679A1800279C802E3
:1059B3003765126E1D780822A3A3A3A3A3A31256CF
:1059C30056EE2274F012079C8A088B09ECFEEDFF59
:1059D300125A7CE4F0A3F09080A6780C120F011207
:1059E3006E18780C120D717003025A74EE240E12A5
:1059F30058DB6401703678B3901310E0702A90136B
:105A030042E064017022EE24111258DBF9121F1FC9
:105A13008A088B09A808A909EE240F126589E849A9
:105A230060047800800278A1880A8048E070171229
:105A33001E4DE9F50A603D8E828F83A3A3125A8817
:105A43005403700E802E64027015121E4DE9F50A80
:105A53006022EEFCEFFDAA08AB09121A998008E058
:105A630064037008121E4DE9F50A8008750AA180C7
:105A730003750AA3A90A0242D1EE1251873FF583A7
:105A8300228A828B83A3A31265F62274F012079CE9
:105A930074F5120D30EAFEEBFFEE240AF508E43F3D
:105AA300850882F583125CC1125C957403120D287C
:105AB3008E828F83125DC5121E3BE97003025B7DEC
:105AC3007401120D287403120D20121A7574011239
:105AD3000F58125E457003025B7DE875F009A4F868
:105AE300AAF075F009E9A42AF9745028F87400396A
:105AF300F9E8FCE9FD127046E4F004120F58124A6B
:105B030094E508125183350912658D8C828D8312B9
